:100000000C943B020C9482020C9482020C948202A7
:100010000C9482020C9482020C9482020C94820250
:100020000C9482020C9482020C940A1F0C94C61E3B
:100030000C9487260C9482020C9482020C94820207
:100040000C9482020C9482020C9482020C94820220
:100050000C9482020C9463260C9482020C9482020B
:100060000C9482020C9482020C9482020C94820200
:100070000C9482020C9482020C9482020C948202F0
:100080000C9482020C9482020C9482020C948202E0
:100090000C9482020C9482020C9482020C948202D0
:1000A0000C9482020C9482020C94820205010902D3
:1000B000A10185020901A1000509190129081500FE
:1000C0002501950875018102050109300931158165
:1000D000257F95027508810609381581257F9501D0
:1000E00075088106050C0A38021581257F95017572
:1000F000088106C0C005010980A101850319012AF4
:10010000B700150126B700950175108100C0050CD8
:100110000901A101850419012AA002150126A002E6
:10012000950175108100C005010906A1018505052D
:100130000719E029E71500250195087501810205D9
:1001400007190029EF1500250195F07501810205B9
:10015000081901290595057501910295017503910D
:1001600001C00660FF0961A1010962150026FF00B8
:100170009520750881020963150026FF00952075FA
:10018000089102C005010906A101050719E029E748
:1001900015002501950875018102950175088101F9
:1001A0000507190029FF150026FF0095067508812F
:1001B000000508190129059505750191029501753C
:1001C000039101C0000101010101010101010202CD
:1001D00002020202020202030303030303030304F5
:1001E00004040404040405050505050606060606C0
:1001F000070707070708080808090909090A0A0A7A
:100200000B0B0B0C0C0C0D0D0D0E0E0E0F0F0F101B
:1002100010111111121213131414151516161717A5
:10022000181819191A1A1B1B1C1D1D1E1E1F202011
:10023000212222232424252626272829292A2B2C5B
:100240002D2D2E2F30313232333435363738393A7E
:100250003B3C3D3E3F404142434445464748494A76
:100260004C4D4E4F50515354555658595A5B5D5E44
:100270005F616264656668696B6C6D6F70727375DF
:1002800077787A7B7D7E8082838587888A8C8E8F43
:1002900091939596989A9C9EA0A2A3A5A7A9ABAD71
:1002A000AFB1B3B5B7BABCBEC0C2C4C6C9CBCDCF5F
:1002B000D1D4D6D8DBDDDFE2E4E7E9EBEEF0F3F50D
:1002C000F8FAFDFFE000060019000100010001003E
:1002D0000100010001000100010001000100010016
:1002E0000100010001000100010001000100010006
:1002F00001000100010001000100010001000100F6
:1003000001000100010001000100010001000100E5
:1003100001000100010001000100010001000100D5
:1003200001000100000000000000000000000000CB
:1003300000000000000000000000000000000000BD
:1003400000000000000000007E0F00D4FFFFFFC788
:100350000000007800000000000000002A2B2800A8
:100360000000000000000000000000000000002964
:10037000000000002C1E3420212224342627252EA4
:10038000362D3738271E1F202122232425263333DC
:10039000362E37381F0405060708090A0B0C0D0E08
:1003A0000F101112131415161718191A1B1C1D2FD4
:1003B0003130232D350405060708090A0B0C0D0EF4
:1003C0000F101112131415161718191A1B1C1D2FB4
:1003D0003130354C09025B00030100A0FA0904002A
:1003E0000001030101000921110100012240000761
:1003F00005810308000A0904010002030000000946
:1004000021110100012222000705820320000107BB
:100410000503032000010904020001030000000994
:10042000211101000122B6000705840320000A12F1
:1004300001100100000008EDFE60600100010200F3
:100440000112036B006500790062006F00610072A9
:1004500000640000001A036E006900670068007401
:100460000076006F0079006100670065007200008F
:1004700000040309040011241FBECFEFDAE0DEBF41
:10048000CDBF04B603FE27C0809147029091480279
:10049000A0914902B0914A028730904BA740B04BDF
:1004A000D1F4109247021092480210924902109221
:1004B0004A0214BE84B7877F84BF0FB6F894A8950C
:1004C00080916000886180936000109260000FBE90
:1004D000E0E0F8E3099522E0A0E7B1E001C01D9259
:1004E000A734B207E1F711E0A0E0B1E0E4EBF0E5FA
:1004F00002C005900D92A037B107D9F70E94E11F05
:100500000C94F4270C940000E8EDF0E080818E7FDD
:1005100080831092E2001092DA001092E100A0EEC7
:10052000B0E08C9181608C9380818F77808319BC3F
:10053000A7EDB0E08C918E7F8C9380818F7E80833D
:100540001092080208952091E4003091E50095E6AC
:10055000A9012091EC00822F817020FF06C08091BC
:10056000E80080FF06C080E008952091E80022FDA9
:100570001AC080912D02882389F0853089F08091FE
:10058000EB0085FD0FC02091E4003091E50042179B
:100590005307F9F29150E1F684E0089582E008955E
:1005A00083E0089581E00895EF92FF920F931F93E7
:1005B000CF937C018B010E94A302C82F811117C029
:1005C0008091E80085FD0BC08091E8008E778093D4
:1005D000E8000E94A302882399F3C82F08C0F701FE
:1005E00081917F018093F1000150110949F78C2F0F
:1005F000CF911F910F91FF90EF90089580912F025E
:1006000087FF13C08091E80082FF06C08091E80058
:100610008B778093E80004C080912D028111F2CF86
:10062000089580912D028823D9F38091E80080FFFE
:10063000F8CF8091E8008E77ECCF982F9093E90067
:10064000242F762F50E0891731F07091EC00209123
:10065000ED005091F00021FD07C09F5F973071F7CA
:100660008093E90081E008953091EB003E7F309364
:10067000EB003091ED003D7F3093ED003091EB00C9
:1006800031603093EB007093EC002093ED005093B9
:10069000F0002091EE0027FDE0CF80E00895CF929A
:1006A000DF92EF92FF920F931F93CF93DF93C8EDEA
:1006B000D0E088818F7E8883E7EDF0E080818160E3
:1006C000808384E082BF81E08093080288818E7FEE
:1006D000888302EE10E0F80110821092DA0081EEB9
:1006E000C82ED12CF601108288818F77888388816B
:1006F0008068888388818F7D888319BC10922D0241
:1007000010922E0210922C0210922B0290EEE92EE3
:10071000F12CF70180818B7F8083888181608883C1
:1007200042E060E080E00E941D03F60180818E7F40
:100730008083F801808181608083808188608083EC
:10074000F70180818E7F8083888180618883DF913B
:10075000CF911F910F91FF90EF90DF90CF90089570
:10076000FC01809135029091360286179707A0F020
:100770006115710529F49091E8009E779093E80047
:1007800090E06115710551F4911108C08091E80065
:1007900082FF34C080E00895BC01F2CF80912D0229
:1007A0008823C1F18530C1F18091E80083FD30C01C
:1007B0008091E80082FDEACF8091E80080FFE1CFE0
:1007C0008091F3002091F200382F6115710519F026
:1007D0002830310558F091E02830310509F090E0DB
:1007E0002091E8002E772093E800CBCF8191809371
:1007F000F100615071092F5F3F4FE7CF80912D02CB
:10080000882341F0853041F08091E80083FFBECF1E
:1008100081E0089582E0089583E008950F931F9387
:1008200010E0F801EE0FFF1FED59FE4F9381905736
:1008300097FD9195000F111FF801E959FE4F0081B6
:100840000052110B2003F001219FF00D112408E349
:1008500010E0091B110997FD139540039001419F7A
:10086000300D1124E20FF31F9F01220F331F2E0FB3
:100870003F1F37FF02C021583F4F220F232F221F57
:10088000330B620F1F910F9108950F931F93522FF7
:1008900010E0F801EE0FFF1FE959FE4FA081A052B2
:1008A000BB0B9D015203F001539FF00D1124000F6B
:1008B000111FD801AD59BE4F13960C910057110B63
:1008C00040039001419F300D11242E0F3F1F37FF31
:1008D00002C0215C3F4F96E0359527959A95E1F748
:1008E000620F1F910F9108950F931F93522F10E0E5
:1008F000F801EE0FFF1FE959FE4FA081A052BB0B7C
:100900009D015203F001539FF00D1124000F111FA0
:10091000D801AD59BE4F13960C910057110B4003EF
:100920009001419F300D11242E0F3F1F37FF02C051
:1009300021583F4F220F232F221F330B620F1F918D
:100940000F910895EF920F93972F23E0029FB0012C
:100950001124759567956E0D792F0F91EF9008957D
:10096000322F50E0FA01EE0FFF1FE959FE4F908140
:10097000905297FD9195440F551FFA01ED59FE4F86
:100980002381231B330B290F311D97FD3A95620FED
:100990000895E42FF0E0EE0FFF1FE959FE4F60814C
:1009A000621B0895E42FF0E0EE0FFF1FED59FE4F9C
:1009B0006381621B0895622F0895E42FF0E0EE0F2B
:1009C000FF1FED59FE4F438134EE439F412D11240B
:1009D000E82FF0E050E0445E5F4FDA01A21BB1095E
:1009E0009D01B7FF03C031952195310993E0220F96
:1009F000331F9A95E1F7AF01421B530B9A0157FD44
:100A000020E0582F259F212D1124822F0895E42FB7
:100A1000F0E0EE0FFF1FED59FE4F438134EE439F90
:100A2000412D1124E72FF0E050E0445E5F4FDA01E2
:100A3000A21BB1099D01B7FF03C031952195310972
:100A400093E0220F331F9A95E1F7AF01421B530B3E
:100A50009A0157FD20E0279F212D1124722F089520
:100A600080E0089580910A0208959C014FB7F894A0
:100A70008091040290910502A0910602B0910702B4
:100A80004FBF821B930B08952FB7F89480910402F7
:100A900090910502A0910602B09107022FBF089520
:100AA0008091E50181111092E50108958091E401A2
:100AB0009091E301892B9091E201892B809372013F
:100AC0009091E5019923A1F0892B80937201809187
:100AD0001001882341F18091EB0187FF24C08EE152
:100AE000E4E7F1E090E0815000F591110E9450059B
:100AF000E091ED01F091EE013097E1F0809110016D
:100B0000882359F08091EB0187FF07C08091720123
:100B10008093730185E0809372010280F381E02D60
:100B200082E791E0099486E0DBCF21912223D9F27C
:100B30009F5FD9CF0895909110019923D1F09091A2
:100B4000EB0197FF16C0E82FE695E695E695EE31A6
:100B5000E0F4F0E0EE58FE4F282F277081E090E09F
:100B600001C0880F2A95EAF78095928189238283B4
:100B70000895E4E7F1E09191891303C0DF01119733
:100B80001C9291E0EA37F907B1F7089590911001AE
:100B90009923C1F09091EB0197FF14C0E82FE695DF
:100BA000E695E695EE31F8F4F0E0EE58FE4F8770EA
:100BB00021E030E001C0220F8A95EAF78281822B82
:100BC00082830895A4E7B1E0EFEF90E02D918217C2
:100BD00051F0EF3F19F4211101C0E92F9F5F9630CA
:100BE000A9F7EF3F09F408950E2E000CFF0BEE5805
:100BF000FE4FE6CFE92FEE0F9E0F890F982F9770CB
:100C000086958695869525E0829FF0011124E45211
:100C1000FE4F50E040E080E0219130E0092E02C01C
:100C2000369527950A94E2F721703327042E01C0E8
:100C3000220F0A94EAF7822B4F5F5F4F4530510530
:100C400059F70895E92FEE0F9E0F890F982F97708F
:100C500041E001C0440F9A95EAF7869586958695FE
:100C600095E0899FF0011124E452FE4F30E020E02E
:100C700070E05191DF011197CB01022E02C09695D1
:100C800087950A94E2F781708195852784238527CB
:100C90008C932F5F3F4F2530310559F70895809190
:100CA000DB019091AA01981301C008958F5F8770AE
:100CB000FACF882341F080959091E40189238093B5
:100CC000E4010C9456050895882339F09091E401CD
:100CD000982B9093E4010C94560508952091A0015F
:100CE0003091A1012817390771F09093A1018093E9
:100CF000A001E091ED01F091EE01309721F0008428
:100D0000F185E02D0994089520919E0130919F0175
:100D10002817390771F090939F0180939E01E0910D
:100D2000ED01F091EE01309721F00680F781E02D82
:100D300009940895E091ED01F091EE01309721F0D2
:100D40000190F081E02D099480E00895FA0181116D
:100D500001C0FB010994E5E9F1E0818360834283EE
:100D60008483638345838783668340870895FC017A
:100D7000EE0FFF1FE80FF91FEB56FE4F6183408314
:100D8000228308950C94AB060C94B706FC019B01DA
:100D9000009729F480E077FF2BC080E80895AC012C
:100DA00097FF04C044275527481B590BB901640F0E
:100DB000751F37FD10C0241B350BC901A5E0880F36
:100DC000991FAA95E1F70E94C22680E2861BF7FFD1
:100DD0000FC081950895CB0165E0880F991F6A9532
:100DE000E1F7BA01621B730B0E94C22680E6EECFC8
:100DF0000895EF920F93CF93DF93D72FC82FC90198
:100E00000E19BA010E94C606602F681B7D2F8C2F19
:100E1000DF91CF910F91EF9008950F93CF93DF93D0
:100E2000D72FC82FC901BA010E94C606682F600FCC
:100E30007D2F8C2FDF91CF910F910895EF920F931B
:100E40001F93CF93DF93D62FC72F182FC9010E19E9
:100E5000010FBA010E94C606081B202F219F212DD9
:100E60001124822F6D2F7C2FDF91CF911F910F9135
:100E7000EF900895EF920F931F93CF93DF93D62FA8
:100E8000172FC82FC9010E19070FBA010E94C606F5
:100E9000702F781B719F712D11246D2F8C2FDF9176
:100EA000CF911F910F91EF9008950F931F93CF93C0
:100EB000DF93D62FC72F182FC901212F201B022FF8
:100EC000BA010E94C606982F990F990F891B800FAF
:100ED000282F219F212D1124822F6D2F7C2FDF9110
:100EE000CF911F910F9108950F931F93CF93DF938D
:100EF000D62F172FC82FC901272F201B022FBA0169
:100F00000E94C606982F990F990F782F791B700FA2
:100F1000719F712D11246D2F8C2FDF91CF911F9117
:100F20000F910895E82F86FDE0952E2F2F7086FDF6
:100F30002F5FE695E695E695E670F0E0E85EFE4FF9
:100F40009181929F902D212D112492959F70229531
:100F5000207F922B2081920F87FD919580E8890F49
:100F60000895AC018230910508F408959FEF413E49
:100F70008EE1580740F49A0195E0369527959A95A9
:100F8000E1F798E0920F61E0E62FE90FFF27FF1FDE
:100F90009F0135952795822F229FF001239FF00D09
:100FA000F00D11244E175F0738F49FEF920F96173C
:100FB00058F78FEF860F08952F3FE9F361E0620F36
:100FC000F6CF0F93CF93DF93D72FC82F47FD4195CF
:100FD00088E390E0841B910947FD9395889FB001B9
:100FE000899F700D700D1124229FC001239F900DC9
:100FF000900D1124860F971F0E94B107982F990F0B
:10100000890F682F600F7D2F8C2FDF91CF910F916B
:10101000089530E020E0869F212D969F200D311D00
:101020001124C9010895AF92BF92CF92DF92FF922F
:101030000F931F93CF93DF93362F472FE82FF0E0C6
:10104000EC53FE4F71110FC0E4918E2F2E2F6E2F97
:10105000722FDF91CF911F910F91FF90DF90CF9072
:10106000BF90AF900895C72FD0E02491F22E022FA9
:1010700010E056E0659FC0011124EFEFF0E0BF01E2
:101080000E94AE26832F90E0880F991F35E5369F8A
:10109000D001379FB00D11248A1B9B0B982F990FFD
:1010A000980F6F01CC1ADD0AC09ED001C19EB00D11
:1010B000D09EB00D11248B2F499FA0011124452FE4
:1010C00055276F01C41AD50AC09EA001C19E500DBC
:1010D000D09E500D11245F01A91AB108AC9E600189
:1010E000AD9ED00CBC9ED00C1124CD2CDD24EC196F
:1010F000FD09E09FE001E19FD00DF09FD00D11248C
:10110000ED2F62307105A1F050F46115710509F4FD
:101110009ECF6130710581F0EB2F852F98CF643021
:10112000710569F080F06630710509F490CFF4CF55
:10113000E22F2B2F8D2F8BCFE22F252F88CFEB2F58
:10114000822F2D2F84CF2B2F8F2DE52F80CF7F92B5
:101150008F929F92AF92BF92CF92DF92EF92FF92C7
:101160000F931F93CF93DF934C01C091110111E0B6
:101170001C0FF12E143010F093E0F92E6091420212
:10118000669580913702909138020E940908782E66
:10119000D0E0CF1590F081E0133008F080E0DF91CF
:1011A000CF911F910F91FF90EF90DF90CF90BF9064
:1011B000AF909F908F907F900895FE01ED59FE4F64
:1011C000818590911201892399F1FE01EE0FFF1F95
:1011D000ED59FE4F8381282F2057330B69018481FD
:1011E000E82FE052FF0B5F01CC9C9001CD9C300DAD
:1011F000300D1124EE9FC001EF9F900D900D112432
:10120000820F931F0E94B107082F60913F027091D7
:10121000400280914102E72C9501A601F401099555
:101220000E941308462F282F672FCE010E94C40664
:101230002196AFCFAF92BF92CF92DF92EF92FF9203
:101240000F931F93CF93DF936C01C091110111E0B5
:101250001C0FB12E143010F033E0B32E6091420217
:10126000669580913702909138020E940908A82E55
:10127000D0E0CE01880F991F9C012D593E4F790176
:10128000CB1578F081E0133008F080E0DF91CF914A
:101290001F910F91FF90EF90DF90CF90BF90AF9094
:1012A0000895FE01ED59FE4F818590911201892329
:1012B000C1F0F70124812052330B43814057550B75
:1012C00060913F0270914002809141020A2DF60127
:1012D00009950E941308462F282F672FCE010E94E0
:1012E000C406F2E0EF0EF11C2196CACFDF92EF9216
:1012F000FF920F931F93CF93DF937C01C091110155
:1013000011E01C0F012F143008F003E0609142023D
:101310006695669580913702909138020E9409087F
:10132000D82ED0E0C01760F081E0133008F080E0E4
:10133000DF91CF911F910F91FF90EF90DF90089573
:10134000FE01ED59FE4F818590911201892391F0A4
:1013500060913F0270914002809141022D2D4C2FEF
:10136000F70109950E941308462F282F672FCE01F9
:101370000E94C4062196D6CF9F92AF92BF92CF9281
:10138000DF92EF92FF920F931F93CF93DF936C0145
:10139000C091110111E01C0FB12E143010F033E098
:1013A000B32E6091420266956695809137029091C6
:1013B00038020E940908F82E80E48F0D0E949207DF
:1013C00090E8A92EA80E8F2D0E94920720E8922E59
:1013D000980ED0E0CB1580F081E0133008F080E06B
:1013E000DF91CF911F910F91FF90EF90DF90CF9001
:1013F000BF90AF909F900895FE01ED59FE4F8185FB
:10140000909112018923A1F060913F0270914002F6
:1014100080914102EF2C0C2F292D4A2DF6010995C0
:101420000E941308462F282F672FCE010E94C40662
:101430002196D0CF0E9444059C019091FC0180919F
:10144000FD01982B21F03093F9012093F801909140
:10145000FE018091FF01982B21F03093F60120933B
:10146000F501E091ED01F091EE01309749F082E055
:101470008093FA010480F581E02D8AEF91E00994D0
:10148000089590E080E00E94840690E080E00E9451
:101490006E061092E3011092E2010E94560586E06A
:1014A000EAEFF1E0DF011D928A95E9F71092F7016A
:1014B0001092F4011092A3010C941A0A6093430253
:1014C0007093440280934502909346020C94410A23
:1014D0000F931F93609143027091440280914502E3
:1014E000909146028B019C01067011272227332719
:1014F000063011052105310529F468601F910F910F
:101500000C945E0A677FFACF0F931F9341E050E07F
:1015100060E070E004C0440F551F661F771F8A9576
:10152000D2F7CB01BA0160957095809590950091A6
:1015300043021091440220914502309146026023FB
:101540007123822393231F910F910C945E0A909133
:10155000E101809589238093E101282F277071F4A0
:10156000282F082E000C330B9217130639F085959F
:10157000859585950E94840A1092E10108950F9344
:101580001F9341E050E060E070E004C0440F551F3D
:10159000661F771F8A95D2F780914302909144028B
:1015A000A0914502B09146028A019B01082B192B9C
:1015B0002A2B3B2BC901B8011F910F910C945E0A95
:1015C0006093E6017093E7018093E8019093E9014D
:1015D0000C94410A4091FC01803F59F48091FD0137
:1015E00087FF0DC01092FD0141110BC01092F70151
:1015F00008C0813F81F48091FD0118169CF34423BB
:1016000081F08091FE019091FF01892B09F05AC071
:101610001092F4010895823F49F447FFF0CF1092F1
:10162000FC018091FD018111ECCFE0CF833F19F4E3
:101630001416ACF3E4CF9091FE01893F29F41916FA
:10164000F4F61092FE01DBCF8A3F19F497FFD7CF53
:10165000F8CF9091FF018B3F29F497FFD0CF1092E4
:10166000FF01CDCF8C3F19F41916CCF3C8CF9CE005
:10167000980F953090F4845F990B21E030E0B90128
:1016800002C0660F771F8A95E2F7CB018095909193
:10169000FB0189238093FB01B2CF8D3F31F4809110
:1016A000A3018E7F8093A301AACF8E3F21F4809166
:1016B000A3018D7FF7CF8F3F09F0A1CF8091A301C8
:1016C0008B7FF0CF0895882309F459C0823871F4D4
:1016D0000E949A0681FF53C089E30E94C6050E94BA
:1016E000560589E30E949B050C945605833859F4EE
:1016F0000E949A0680FF43C083E50E94C6050E94AF
:10170000560583E5EFCF843859F40E949A0682FF8C
:1017100036C087E40E94C6050E94560587E4E2CFE2
:101720009CEF980F913AF0F290E2980F983088F47D
:10173000877021E030E0A90102C0440F551F8A954F
:10174000E2F7CA0180959091E40189238093E40136
:10175000CBCF9BE5980F933020F490E080E00C9481
:10176000840698E5980F973120F490E080E00C947F
:101770006E06803F20F00E94EA0A0C941A0A08952F
:101780008091A30180FD16C081FD16C082FD16C0A8
:101790008091F4018823A1F0883280F428E0829FB0
:1017A000C001112468E270E00E94C226862F672BD8
:1017B00039F0089582E0089584E0089588E008955E
:1017C00081E008958091A30180FD14C081FD14C0C3
:1017D00082FD16C08091F701882381F0843180F466
:1017E00022E3829FC001112464E170E00E94C226BE
:1017F000862F08958CE0089589E1089585E0089585
:1018000082E30895803F31F40E94E20B819580933A
:10181000FD010895813F19F40E94E20BF8CF823F49
:1018200031F40E94E20B81958093FC010895833F7F
:1018300019F40E94E20BF8CF893F29F40E94C00BF3
:101840008093FE0108958A3F21F40E94C00B819588
:10185000F7CF8B3F31F40E94C00B81958093FF013D
:1018600008958C3F19F40E94C00BF8CF9CE0980FAC
:10187000953070F4845F990B21E030E001C0220FB5
:101880008A95EAF78091FB01822B8093FB010895F2
:101890008D3F31F48091A30181608093A30108956D
:1018A0008E3F21F48091A3018260F7CF8F3FB9F77B
:1018B0008091A3018460F1CFF894E82FE295EF7056
:1018C000F0E031A1282F2F7081E090E001C0880F57
:1018D0002A95EAF7982F9095932391A392A1892BAB
:1018E00082A3789408959091EB0192FF06C0282F6F
:1018F00028712830F9F4877F846093FF06C0282F71
:1019000028712831F1F4877E84612091EC0120FF59
:1019100006C0382F38713830D9F4877F816021FFB5
:1019200006C0282F28712831D1F4877E816194FD6B
:10193000877E0895282F24712430F9F68B7F8860E4
:10194000DCCF282F2471243101F78B7E8861DDCF15
:10195000382F3171313019F78E7F8860E0CF282F12
:101960002171213121F78E7E8861E1CFCF9384E010
:1019700090E00E944F27C82F81E290E00E944F27FD
:10198000982F8C2FCF9108950F931F93CF93DF93B0
:1019900096E0C42FD0E0CC0FDD1F699FC00DD11D94
:1019A0001124899FC00DD11D1124CE0186960E945D
:1019B0004F27082F10E0102F0027CE0187960E9496
:1019C0004F279801282BC901DF91CF911F910F91CB
:1019D0000895462F843038F4711105C0633018F42F
:1019E00060E00C94C40C90E080E00895CF93DF9306
:1019F0000E94E90CEC0182389105A9F1D8F58133F8
:101A0000910509F496C048F58932910509F48AC018
:101A10008A9709F495C0C11521E5D20708F0BCC02A
:101A2000C11530E5D30708F014C1C83ED10508F050
:101A30009CC0C03ED10560F5C83AD10508F087C00A
:101A4000C53AD10508F0FDC0C130D10509F1209794
:101A5000F9F0C430D105E0F440C08533910509F4B4
:101A60005AC0C997C1F68091EB01837089F0C0EE2E
:101A7000D0E00EC0833E910599F170F4803E91054F
:101A800001F1823E910539F68091EB0182FD21C082
:101A9000CE01DF91CF910895863E910561F1873E99
:101AA000910571F1843E910509F0B5CF8091EC016B
:101AB00081FFEECF8091EB01C7EED0E084FD0DC039
:101AC000E7CF8091EB0180FD12C19091EC0190FF76
:101AD000DFCFC3EED0E084FFDBCFD0E0C0E0D8CFD3
:101AE0008091EB0182FD06C19091EC0190FDBFCF8A
:101AF00084FFCECFF2CF8091EB0183FDDDCFC8CF45
:101B00008091EB0183FDF9C09091EC0191FFF0CF42
:101B1000C4EED0E0BDCF8091EB0185FFB9CFC9E223
:101B2000D0E0B6CF8091EB0185FFB2CFC5E3D0E026
:101B3000AFCF8091EB0186FFABCFCAE2D0E0A8CF58
:101B40008091EB0186FFA4CFC1E3D0E0A1CFCF3BD2
:101B5000D10518F6C85AD0E0CC0FDD1FCD5DDE4FA1
:101B60000990D881C02DD46493CFC11540E2D40729
:101B700058F4C11581E0D80708F08ACFC03FD105DD
:101B800008F4ABCFD06584CFC11590E4D90708F431
:101B9000A4CFDF70D06A7CCFC11525E5D20700F550
:101BA000C11534E5D30708F08AC0C11543E5D40751
:101BB00008F071C0C11582E5D80708F467C0CE01EE
:101BC0008370992721E030E002C0220F331F8A95ED
:101BD000E2F7C695C69580E2C89FE001112452C085
:101BE000C11599E5D907A8F4C11528E5D20708F071
:101BF0006BC0C11536E5D30708F06FCF8C2F0E945C
:101C0000730CC82FD0E0DC2FCC27CC27DF71D0623B
:101C10003FCFC1154AE5D40708F45BC0CE0190560A
:101C20008115904208F059CF8D2F8F710E94730C4F
:101C300090E0982F882788279F719C012C2BE90121
:101C4000E6CFC55AD0E0C05EDE4FC881D0E0D06498
:101C50001FCFCE01E4E096958795EA95E1F7837072
:101C60002C2F26952695237040E2249F9001112465
:101C7000382B8C2F8370C1E0D0E002C0CC0FDD1F69
:101C80008A95E2F7C22BD32BDC6802CFDC2FCC275E
:101C9000C16FD06AFDCECE018370992721E030E07C
:101CA00002C0220F331F8A95E2F7C695C69590E2CF
:101CB000C99FE0011124C22BD32BDA68E9CEDC2FB7
:101CC000CC27C46FD06AE4CEDC2FCC27C06FD06A9B
:101CD000DFCE8C2F8F700E94730C34E0D695C795A1
:101CE0003A95E1F7CF709C2FEC01D069D1CEC9E3D2
:101CF000D0E0CECEC2EED0E0CBCEC6EED0E0C8CEA5
:101D0000BF92CF92DF92EF92FF920F931F93CF93E8
:101D1000DF938C01C0904302D0904402E0904502D2
:101D2000F09046028091E6019091E701A091E801D0
:101D3000B091E901C82AD92AEA2AFB2ACFE1D0E0EA
:101D4000BC2ED701C6010C2E04C0B695A795979559
:101D500087950A94D2F780FD0EC0219788F7B12CA1
:101D60008B2DDF91CF911F910F91FF90EF90DF901E
:101D7000CF90BF900895B8018C2F0E94F60C019768
:101D800061F3EECFCF93DF93EC010E94800EBE0192
:101D9000DF91CF910C94F60C0E94C20E292F2F7068
:101DA00092959F7092509E3078F4E92FF0E0EA50BF
:101DB000F84D0C94D626803F19F020F4883E20F48C
:101DC00081E00895843FE1F380E00895883EC0F308
:101DD000813FD1F7F5CF822F869586958695089518
:101DE000AF92BF92CF92DF92EF92FF920F931F9329
:101DF000CF93DF9384ECC82E82E0D82E0CE210E063
:101E0000E80126977601F701A590B4906B2DCE01DD
:101E10000E946D276A2DCE0101960E946D2782E0F7
:101E2000E80EF11C2296C017D10769F786E0C80EAC
:101E3000D11C8E010A5F1F4F0434110509F7DF9191
:101E4000CF911F910F91FF90EF90DF90CF90BF90B7
:101E5000AF900895CF93DF93CEE3D0E060E0CE0162
:101E60000E946D272196C11584E0D807B9F7DF914C
:101E7000CF9108951F93CF93DF93EC01FC01ED59AF
:101E8000FE4F81856823A1F00E942F27182F0E9402
:101E90002F27612F782F809141020E941308462F2F
:101EA000282F672FCE01DF91CF911F910C94C4068C
:101EB000DF91CF911F910895DF92EF92FF920F93E0
:101EC0001F93CF93DF938C01FC01ED59FE4F818569
:101ED000682381F1D0904002D0914102C0913F022D
:101EE000EC2EF12C0E942F27282FC7018C549F4FD6
:101EF00068E671E00E94C2268E199F0997FD03963D
:101F0000959587959595879523706C2F289F600DE3
:101F100011247D2D8D2F0E941308462F282F672F07
:101F2000C801DF91CF911F910F91FF90EF90DF904B
:101F30000C94C406DF91CF911F910F91FF90EF9009
:101F4000DF900895CF93DF9300D00F92CDB7DEB727
:101F500090912D02943011F589837B836A8390934D
:101F6000E9008FEF9091E800815095FD06C095ED56
:101F70009A95F1F700008111F5CF8091E80085FF77
:101F80000DC050E040E063E070E0CE0101960E9499
:101F9000D4028091E8008E778093E8000F900F9034
:101FA0000F90DF91CF910895BC0184E00C94A20FB3
:101FB000BC0183E00C94A20F9C0184E08093E900B3
:101FC0009FEF8091E800915085FD06C085ED8A95D0
:101FD000F1F700009111F5CF8091E80085FF0CC06A
:101FE00050E040E066E070E0C9010E94D4028091B8
:101FF000E8008E778093E8000895CF93DF93EC019B
:10200000809110018823B1F18091EB0187FF32C0EC
:1020100060E284E08093E9008FEF9091E8008150C6
:1020200095FD06C095ED9A95F1F700008111F5CF69
:102030008091E80085FF1BC08091100170E050E0A6
:1020400040E0811104C050E040E068E070E0CE0163
:102050000E94D4028091E8008E778093E80080E2AD
:10206000FE01ABE0B2E001900D928A95E1F7DF91BD
:10207000CF91089568E081E0CDCF81E08093E000CA
:1020800080E28093D8001092C9008FE19EE401970E
:10209000F1F700C0000087E090EBDC01809347027D
:1020A00090934802A0934902B0934A0288E19CE0D1
:1020B0000FB6F894A895809360000FBE90936000CF
:1020C000FFCFCF93C82F882309F4AEC08238C1F464
:1020D0000E949A0681FDA8C089E30E94C6050E945D
:1020E00056052FEF81EE94E0215080409040E1F7BB
:1020F00000C0000089E30E949B05CF910C94560517
:102100008338A1F40E949A0680FD8EC083E50E9468
:10211000C6050E9456052FEF81EE94E021508040C5
:102120009040E1F700C0000083E5E5CF8438A1F4DA
:102130000E949A0682FD78C087E40E94C6050E942C
:1021400056052FEF81EE94E0215080409040E1F75A
:1021500000C0000087E4CFCF8CEF8C0F813A88F568
:1021600080911001882301F18091EB0187FF1CC051
:10217000EC2FE695E695E695F0E0EE58FE4F82816D
:1021800090E04C2F477021E030E002C0220F331F57
:102190004A95E2F782239323892B79F08C2F0E94B2
:1021A0009B050E94560509C0E4E7F1E08191C8173C
:1021B000A9F321E0EA37F207C9F78C2F0E94C60580
:1021C0009CCF80E28C0F883068F4C77021E030E04B
:1021D00001C0220FCA95EAF78091E401822B809317
:1021E000E4018BCFEBE5EC0FE33040F4F0E0E05E90
:1021F000FE4F808190E0CF910C948406E8E5EC0FCF
:10220000E73150F4F0E0EE0FFF1FED5DFE4F8081EF
:102210009181CF910C946E06C03F30F08C2F0E94BC
:10222000020CCF910C941A0ACF9108951F93CF936B
:10223000DF93182FD0E0C0E0893311F4C0E5D0E07F
:10224000812F0E946110209731F4812FDF91CF916F
:102250001F910C94630B8FE99FE00197F1F700C089
:1022600000002197F0CF0F931F93CF93DF93C62FDA
:10227000D42F022FFC0182818823A1F060933D02BC
:102280000E94440590933C0280933B02C77081E01A
:1022900001C0880FCA95EAF7DF91CF911F910F9186
:1022A0000C94640680913D02681335C080913B0216
:1022B00090913C020E943505883C910560F510E242
:1022C0001D0FCD17B9F080E28C0F883040F4C77035
:1022D00081E001C0880FCA95EAF70E9459061830BC
:1022E00048F481E09D2F977001C0880F9A95EAF716
:1022F0000E946406802F0E941611183098F4D7703F
:1023000081E001C0880FDA95EAF7DF91CF911F9144
:102310000F910C945906C77081E001C0880FCA95CF
:10232000EAF7F3CFDF91CF911F910F910895209A93
:1023300035B13E7F25B121604FB7F89485E991E032
:10234000FC015191CF0168E025B9000000C057FFA2
:1023500035B9550F000000C000C000C035B900C03D
:102360006A9591F7F1E08E399F0751F74FBF8FE5DE
:1023700094E00197F1F700C000000895CF93F8941E
:10238000279A2F98789400C0A1E5B1E030E020E0D2
:10239000C0E051E04D91E42FE295EF70F0E080A1B4
:1023A00090E04F7002C0959587954A95E2F780FDC1
:1023B00019C0852F022E01C0880F0A94EAF7C82B96
:1023C0002F5F3F4F2330310529F787E30E945C0CD4
:1023D0008091EA01C81308C0C0919401CC23F1F0A8
:1023E000C0E00EC080E0EBCFC093EA0181E08093B3
:1023F00094010E9444059093930180939201C1E05F
:1024000080919201909193010E943505069730F0DA
:102410008091EA0180930302109294018C2FCF9156
:1024200008956BEE7EEF90E080E00E948B2760E0E5
:1024300082E090E00E946D2760E083E090E00E94DF
:102440006D271092E6011092E7011092E8011092B8
:10245000E90160E084E090E00E946D2760E081E2A5
:1024600090E00E946D2760E085E090E00E946D277B
:1024700060E086E090E00E946D276FEF87E090E0DB
:102480000E946D2740E050E0BA0188E090E00E9491
:102490007F2760E08DE090E00E946D2740E050E0F3
:1024A000BA0188E190E00E947F2760E087E190E038
:1024B0000E946D2740E050E0BA018CE190E00E945C
:1024C0007F2760E080E290E00E946D2740E050E0CE
:1024D000BA0188E190E00E947F2740E050E0BA0115
:1024E0008FE090E00E947F2740E050E0BA0183E156
:1024F00090E00C947F271092E40180911001E4E7B2
:10250000F1E0882359F08091EB0187FF07C08EE14D
:10251000DF011D928A95E9F70C94410A86E0F8CF15
:102520001F93CF93DF93CDB7DEB7AA970FB6F8947A
:10253000DEBF0FBECDBF8FE292E02091F100DC0143
:102540002D93CD01B2E087339B07B9F7809130021C
:10255000833009F471C0B8F4813009F448C0823086
:1025600009F4B2C08091E80083FF3AC180912F0244
:10257000909130029A3008F033C1E92FF0E0EC5F1F
:10258000F74D0C94D6268A3009F48DC08B3009F4AF
:1025900070C0893039F780912F02813219F780910C
:1025A000330290913402009711F00297D9F680918E
:1025B000E800877F8093E8008091E80082FF37C0C1
:1025C0009091F3008091F200029729F48091F1003C
:1025D0008B7F813021F48091F10080930A028091F9
:1025E000E8008B778093E8000E94FE02BBCF8091C9
:1025F0002F02813A09F0B6CF8091E800877F80935F
:10260000E8008091330290913402892B61F460E2FA
:102610008BE092E070E00E94B0038091E8008B773D
:102620008093E8009FCF60E090E080E0F3CF80915E
:102630002D028111C1CF96CF80912F02813A09F0EE
:1026400091CF8091330290913402892B09F08ACF87
:102650008091E800877F8093E8008091E80080FF08
:10266000FCCF809110018093F1008091E8008E777B
:10267000B9CF80912F02813209F074CF809133025B
:1026800090913402892B09F06DCF8091E800877F0B
:102690008093E8000E94FE02809131028093100135
:1026A0000E947B125FCF80912F02813209F05ACFB6
:1026B0008091E800877F8093E8000E94FE0280916D
:1026C0003202809309024ECF80912F02813A09F0A5
:1026D00049CF8091E800877F8093E8008091E800EF
:1026E00080FFFCCF80910902BECF803899F08238FC
:1026F00009F076C0809133028F70873008F070C087
:102700008093E9008091EB0085FB882780F9109287
:10271000E90006C080912B0290912C0291118260F9
:102720009091E800977F9093E8008093F1001092D9
:10273000F1008091E8008E77B5C1882309F4A2C129
:10274000823009F04DC0809131028111A6C1809183
:1027500033028F702FEF280F263008F041C080938E
:10276000E9002091EB0020FF98C1933031F4809173
:10277000EB0080628093EB0090C19091EB00906140
:102780009093EB0021E030E001C0220F8A95EAF738
:102790002093EA001092EA008091EB008860EACF73
:1027A00081111EC0109131021F778091E300807863
:1027B000812B8093E3008091E800877F8093E8007D
:1027C0000E94FE028091E80080FFFCCF8091E30030
:1027D00080688093E30082E0111183E080932D02F2
:1027E0008091E80083FF0AC08091E800877F809392
:1027F000E8008091EB0080628093EB00AA960FB610
:10280000F894DEBF0FBECDBFDF91CF911F91089529
:102810008058823028F720913102309132022C3DCD
:10282000E3E03E07A1F583E08A838AE289834FB71C
:10283000F894DE01139620E03EE051E2E32FF0E051
:1028400050935700E49120FF03C0E295EF703F5F83
:10285000EF708E2F90E0EA30C0F0C7968D939D9375
:102860002F5F243159F74FBF8091E800877F809315
:10287000E8006AE270E0CE0101960E94B003809108
:10288000E8008B778093E800ABCFC096E7CF8091CC
:10289000330290913402432F55274330510509F4F8
:1028A0004AC078F54130510509F47AC08BE590E0D3
:1028B000E4EDF3E04230510509F092CF2091E800B9
:1028C000277F2093E800209135023091360282174D
:1028D000930708F49C0140E02115310509F065C01B
:1028E000411163C08091E80082FDC9CF80912D0223
:1028F000882329F2853019F28091E80083FFF2CF16
:10290000BECF4132510509F43CC04232510509F0B5
:1029100067CF8330910508F063CFFC01EE0FFF1FF6
:10292000E95AFE4F0190F081E02D8C5A9E4FDC0158
:102930008C9190E01AC0332721303105D1F0211558
:10294000310561F02230310509F04ACFE1E4F4E0CD
:10295000E4918E2F90E0E1E4F4E007C0E1E7F4E0D9
:10296000E4918E2F90E0E1E7F4E0009709F438CF8E
:10297000A5CFE5E5F4E0E4918E2F90E0E5E5F4E005
:10298000F4CF8330910508F02BCF880F991FFC01FD
:10299000E35AFE4F0190F081E02D89E090E08ECF68
:1029A00082E190E0EFE2F4E089CF80912D0288236C
:1029B00009F465CF853009F462CF8091E80083FD8A
:1029C0005ECF8091E80082FD8DCF8091E80080FF8E
:1029D00083CF9091F3008091F2002115310519F019
:1029E0008830910550F041E0089709F040E080916F
:1029F000E8008E778093E8006FCF44914093F10018
:102A00003196215031090196E8CF803809F0E8CE9F
:102A10008091E800877F8093E80080912E02809368
:102A2000F10087CE8111DCCE10913102123008F016
:102A3000D7CE8091E800877F8093E80010932E0224
:102A40000E94FE02112311F084E005C08091E30092
:102A500087FDFACF81E080932D0242E061EC81E0B6
:102A60000E941D0342E261EC84E00E941D0342E2E9
:102A700061EC82E00E941D0342E260EC83E00E9470
:102A80001D03AECE80913102813009F0A9CE81E0E4
:102A9000933009F080E080932C021092E90080913D
:102AA000E800877F8093E8000E94FE0299CE45E00F
:102AB00050E06CE170E08EE392E00C945D27909121
:102AC0003E02937089F0811107C0946090933E029A
:102AD000109214010C945715893110F09066F6CFBE
:102AE000880F880F982BF2CF089580913E0286952B
:102AF0008695815009F488E10C945F1580913E021F
:102B0000869586958F5F893108F081E00C945F157A
:102B100090913E02937041F080933F026093400297
:102B2000409341020C9457150895EEE3F2E043817F
:102B300020E1421B08F440E08181628190E00C9426
:102B40008815EEE3F2E0438120E1420F08F44FEFF5
:102B50008181628190E00C948815EEE3F2E062815D
:102B600020E1621B08F460E08181438190E00C94D5
:102B70008815EEE3F2E0628120E1620F08F46FEF66
:102B80008181438190E00C948815EEE3F2E081812D
:102B9000438162818850990B0C948815EEE3F2E032
:102BA000818190E04381628108960C9488153F9260
:102BB0004F925F926F927F928F929F92AF92BF924D
:102BC000CF92DF92EF92FF920F931F93CF93DF93F9
:102BD00000D000D00F92CDB7DEB78C01FC0183810D
:102BE0009481892B31F08081918189238F3F09F075
:102BF0000DC60F900F900F900F900F90DF91CF9117
:102C00001F910F91FF90EF90DF90CF90BF90AF900A
:102C10009F908F907F906F905F904F903F9008951E
:102C20000E94800EF82E682F89819A810E942206C8
:102C300069817A818F2D0E94E90C7C01F8019281D3
:102C4000992309F4D6C5970122513F45203131051A
:102C500008F0A2C58FEF93E00E944F27FEEEEF0E23
:102C60005EE3852E912C882381F18091E1018770AC
:102C700009F4BFCFF8018281882309F4BACF82E03A
:102C80000F900F900F900F900F90DF91CF911F91A9
:102C90000F91FF90EF90DF90CF90BF90AF909F90FB
:102CA0008F907F906F905F904F903F900C94A70A09
:102CB000811424E09206C9F2C4010E944F278111B9
:102CC00001C0EA943FEF831A930AE110F1CF1C820E
:102CD0001B82442443944AE0342E74018FEFE81A97
:102CE000F80AC4010E944F2789831A82882309F4B5
:102CF000BCCF9FEF980F933000F58A83498292E012
:102D0000890E911CC7010E944F278B83882309F4E9
:102D1000ACCFFE0131967F01F70120812223E9F239
:102D2000213009F049C091818281913041F4F2E073
:102D3000EF0EF11C0E94161109C04701EACF923034
:102D400049F422E0E20EF11C0E9461103FEFE31A09
:102D5000F30AE2CF933031F432E0E30EF11C0E942B
:102D6000630BF4CF943021F08FEFE81AF80AEECF1E
:102D700092E0E90EF11C30E020E0B7016F5F7F4F79
:102D8000F70141818053990B8A30910550F0215011
:102D90003109E0F28FE99FE00197F1F700C00000F0
:102DA000F6CF329EF001339EF00D11249C012E0FC0
:102DB0003F1F842F7B01E1CFE22FF0E0EC5AFC4F64
:102DC0005490822F86958695869590E0FC01EC5B69
:102DD000FC4F64902770712C022E02C0759467948A
:102DE0000A94E2F7E1E06E227724FC01EC5CFC4FF0
:102DF000A490B12C022E02C0B594A7940A94E2F7D5
:102E0000F1E0AF22BB24FC01EC5DFC4FC490D12C5F
:102E100002C0D594C7942A95E2F721E0C222DD24AE
:102E20006114710419F081EE0E946110A114B104C3
:102E300019F086EE0E946110852D0E941611AB28B4
:102E400019F086EE0E94630B672819F081EE0E944C
:102E5000630BCD2809F47ACF8CE26CCF81E00E941D
:102E6000BF0A0E94680A01CF81E00E94840AF9CF5C
:102E700082E0F5CF85EFE8168CE5F80609F46AC024
:102E800008F464C027E245EE66EEF6EFEF16FCE5C7
:102E9000FF0609F4AAC4992309F4C9C410923D029B
:102EA00022E0E2162CE5F20608F44DC136E1E31605
:102EB0003CE5F30638F097012A5F3C45293031059F
:102EC00008F041C10E94B60C9093EC018093EB0195
:102ED00080E1E8168CE5F80609F404C108F083C027
:102EE000E8E0EE16ECE5FE0609F4EEC008F04FC08F
:102EF00024E0E2162CE5F20609F4DEC090F582E04B
:102F0000E8168CE5F80609F4D1C08091EB018260E7
:102F100093E0E9169CE5F90609F4CBC06091EB015A
:102F2000F090EC0184E090E00E946D276F2D81E22B
:102F300090E00E946D270E947B1297CE27E245EE1B
:102F400065EE53C426E241EE60EE4FC427E245EE43
:102F500064EE4BC426E241EE62EE47C428E241E053
:102F6000EFCF8091EB018061E6E0EE16ECE5FE0626
:102F700009F49FC08091EB018860F7E0EF16FCE553
:102F8000FF0608F496C08091EB01806292C08091A8
:102F9000EB018D7F2CE0E2162CE5F20609F489C0E6
:102FA00060F48AE0E8168CE5F80609F497C008F4A6
:102FB0008FC08091EB018E7F7CC08091EB01877F79
:102FC000EEE0EE16ECE5FE0609F473C08091EB012D
:102FD0008B7FFFE0EF16FCE5FF0608F46AC08091E6
:102FE000EB018F7E66C02BEFE2162CE5F20609F4AA
:102FF00067C068F583E1E8168CE5F80609F47AC045
:1030000090F4E1E1EE16ECE5FE0609F46FC0F2E1A2
:10301000EF16FCE5FF0609F081CF0E947B1280913C
:10302000EB018F7746C025E1E2162CE5F20609F4A4
:1030300069C008F47DC08AEFE8168CE5F80609F04F
:103040006DCF8091EC0181608093EC0167CF9FEFA1
:10305000E9169CE5F90609F451C0A0F48091EC0151
:103060008D7FFDEFEF16FCE5FF0671F38091EC011B
:103070008E7F2EEFE2162CE5F20630F38091EC0104
:103080008360E2CF31E0E3163DE5F30609F459C071
:1030900008F444C060E092E0E9169DE5F90609F005
:1030A0003DCF8EE090E00E946D2738CF8091EB01FC
:1030B00081608093EB0132CF8091EB018460F9CF86
:1030C0008091EC018260C0CF8091EB018064F1CFF0
:1030D0000E947B128091EB018068EBCF8091EB0125
:1030E0008C60E7CF8091EB018F7DE3CF8091EB0186
:1030F0008F7BDFCF8091EB01837FDBCF8091EC0171
:103100008C7FA2CF8091EB0182FB992790F921E07F
:10311000922790FB82F990FB83F9CBCF8091EC0151
:10312000982F909591708E7F892B90FB81F98CCF91
:103130000E947B129091EB01892F97FB87F98058B1
:10314000B8CF61E0AECF8091E401E6E1EE16ECE5A8
:10315000FE0609F07AC38A7A91E009F490E0909330
:10316000A201811106C089E20E94C6050E9456058F
:103170007CCD85E3F9CF85E365C380913E0291E084
:10318000892780933E02109214010E9457156DCD3D
:1031900045E755E16EE775E10E94A60666CD4EE76C
:1031A00055E165E775E1F8CF45EC55E16EEC75E169
:1031B000F3CF4EEC55E165EC75E1EECF4DEA55E10C
:1031C00069EB75E1E9CF49EB55E16DEA75E1E4CFD3
:1031D00045E955E161EA75E1DFCF41EA55E165E98D
:1031E00075E1DACF4BEA5EE161EA7EE1D5CF41EAF3
:1031F0005EE16BEA7EE1D0CF81E00E945F1535CDC4
:1032000085E0FBCF8DE0F9CF82E1F7CFE114FCE55B
:10321000FF0609F447C02EEDE2162CE5F20609F48C
:103220004EC0F801E080F180992309F44BC0C7013A
:103230000E94800ED82E682FC7010E942206B70177
:103240008D2D0E94F60C7C01882EF801D280A5807D
:10325000A2943FE0A3228091E1018770A1F0CD2CE0
:10326000DD2091F08F2D807F803421F080E28E0D63
:10327000883048F082E00E94A70A8091E1018770BF
:10328000CC24C3948111C12C3F2C32942FE03222E4
:10329000FBE0F31508F452C0E32DF0E0E25FF74DD8
:1032A0000C94D6260E947B123FEF84E39CE03150C1
:1032B00080409040E1F700C000000E943D100E9455
:1032C0001112D3CCC7010E94FA05D82EB8CF2F2DEA
:1032D0002F70A22E8F2D807F19F0A29490EFA9223B
:1032E000DD20C9F0AA2069F080E28E0D883010F050
:1032F00081100BC08091E401A82AA092E4010E94F1
:1033000056058E2D0E94611019C08091E301A82AF4
:10331000A092E301F4CF8E2D0E94630BAA2071F0DE
:10332000A09480E28E0D883010F081103DC0809115
:10333000E401A822A092E4010E945605232D285002
:10334000330B2430310510F40E949A06CC2009F486
:1033500050CC8091E10180FD4CCCF8011282859522
:10336000859585950E94BF0AC8010E94D715809156
:10337000E1018595859585950F900F900F900F90A1
:103380000F90DF91CF911F910F91FF90EF90DF9001
:10339000CF90BF90AF909F908F907F906F905F90F5
:1033A0004F903F900C94840A8091E301A822A09250
:1033B000E301C2CF3F2D3F70932E8F2D807F80324F
:1033C00019F0929480EF9822882071F081E088169D
:1033D00061F1DD20B9F1AA2071F1F801858180FF4A
:1033E00090CF8F70858327C0DD2091F09091E5010B
:1033F000892D892BA11003C00E9464069FCFE1E0B4
:10340000AE12FACF981709F499CF8093E50196CFC1
:10341000A11006C00E945005892D0E9459068ECF2A
:10342000F1E0AF1609F48ACFF5CFDD2031F025E0C9
:103430002A1508F483CF892DDFCF34E03A1508F43C
:103440007DCFEACFAA2041F3F9E38F1209C02FEF15
:1034500037EE83E0215030408040E1F700C00000AB
:103460008E2D0E94630B6ACF8F2D86958695837073
:1034700061F0813009F062CFC7019370D11002C0B2
:1034800090E080E00E946E0659CFC7019370D11082
:1034900002C090E080E00E94840650CF8E2DDD2097
:1034A00029F00E94020C0E941A0A48CF0E94EA0AE0
:1034B000FACF8F2D837009F066C0D1103FCF8E2DCB
:1034C000829586958770880F880F6E2D6F70462EB7
:1034D000512C712C612C082E04C0440C551C661C08
:1034E000771C0A94D2F740E050E0BA01E4FE0FC026
:1034F0004FE050E060E070E004C0440F551F661FCD
:10350000771F8A95D2F740955095609570958F2DCD
:10351000869586958370823019F1D8F48090E60103
:103520009090E701A090E801B090E901813069F046
:103530004429552966297729CB01BA0168217921C7
:103540008A219B210E94E00AF9CE482859286A283E
:103550007B28CB01BA016429752986299729F2CFE6
:1035600044295529662977294090E6015090E701C2
:103570006090E8017090E901CB01BA0164257525DE
:1035800086259725DFCF8695DD2011F08F2D817060
:10359000882309F4D3CE8E2D829586958770880F67
:1035A000880F6E2D6F70462E512C712C612C082EB9
:1035B00004C0440C551C661C771C0A94D2F740E0EA
:1035C00050E0BA01E4FE0FC04FE050E060E070E070
:1035D00004C0440F551F661F771F8A95D2F7409588
:1035E0005095609570958F2D869586958370823065
:1035F00019F1D8F48090430290904402A0904502C3
:10360000B0904602813069F044295529662977290E
:10361000CB01BA01682179218A219B210E945E0A8F
:103620008DCE482859286A287B28CB01BA01642905
:10363000752986299729F2CF4429552966297729A2
:1036400040904302509044026090450270904602C0
:10365000CB01BA016425752586259725DFCF9F2DDF
:103660009F70F92EDD2029F0892F0E94BF0A8E2D30
:10367000C3CE8E2D0E9459068F2D0E94840A5ECEE5
:103680008E2DE2EF8E1609F453C0E81578F0F0EFB6
:103690008F1629F121EF821609F442C0DD2009F4CA
:1036A0006BC0A1102ECE8F2D8F713FC033EF8316CC
:1036B00009F443C094EF8912F1CFDD2009F451C021
:1036C0002F2D2F71F22E822F0E94BF0A38E0F39E19
:1036D000C001112483608093E1018F2D26C0DD207D
:1036E000D1F0E4E0EA1508F429CE2F2D2F7161E026
:1036F00070E080E090E004C0660F771F881F991F7C
:103700002A95D2F7409043025090440260904502BF
:10371000709046029FCFF5E0FA1508F40FCEE5CF82
:103720008F2D8F71DD2009F4A8CF0E94BF0A06CE2D
:103730008F2D8F71DD20C9F3A0CF60E070E0CB0149
:10374000DD2009F46BCF2F2D2F7161E070E080E058
:1037500090E004C0660F771F881F991F2A95D2F743
:103760005DCF81E00E94A70A81E08A1508F0E6CDCE
:1037700082E00E94A70AE2CDAA2059F0893309F01D
:103780006FCE9FEFE7EEF3E09150E040F040E1F7BD
:1037900065CE8F2D8F7171CFF0E1EF16FFE5FF063B
:1037A00009F45CCB21E1E2162FE5F20609F460CBC7
:1037B00083EFE8168CE5F80609F4C4CB08F05ACB81
:1037C000F8EDEF16FCE5FF0609F4B8CB29EDE2169B
:1037D0002CE5F20609F4C2CB37EDE3163CE5F3061F
:1037E00009F059CB26E241EE61EEC8010E94331187
:1037F0003CCA30E1E3163FE5F30609F435CB81E13D
:10380000E8168FE5F806A1F682E02FCB85E0DE0111
:10381000119601900D928A95E1F7F8012281898134
:103820009A812111FDC90E94FA05F82E01CAF6E11C
:10383000EF16FCE5FF0609F0F4CC8091A20181119E
:103840009ACC89E20E949B0591CC8272F701E25CDE
:10385000FC45E431F10508F0D9CCE65EF74D0C9457
:10386000D6261F93CF93DF938091A901807FA9F47F
:103870008091A601882389F08091DB01D091AA0173
:103880006091A4017091A501A091A701B091A80138
:10389000C62FC72316E0D81304C0DF91CF911F9124
:1038A000089590E0109711F0CF3F19F401968770BA
:1038B000F2CF189F9001199F300D1124F901E555A1
:1038C000FE4F41814713F2CF40814613EFCF428133
:1038D0004111ECCF438154814A1B5B0B483C51059D
:1038E00028F78091A9018F7080618093A901F90167
:1038F000E055FE4F80818F708061808384EA91E083
:103900000E94D715DF91CF911F910C944F06AF9273
:10391000BF92CF92DF92EF92FF920F931F93CF93BC
:10392000DF93CDB7DEB761970FB6F894DEBF0FBE59
:10393000CDBF8C0185E0F801DE011D9601900D924E
:103940008A95E1F7F80180819181E28024EAA22E34
:1039500021E0B22E6091A7017091A8016115710557
:1039600009F43EC13091A4014091A501232F2423E5
:103970002F3F09F435C1C380D480F090A601F60131
:10398000E61BF70BFF2009F4FBC02091A901522F81
:10399000507FE83CF10508F0BBC0511178C0FE2C07
:1039A000491321C038131FC0E1101DC02F702061C2
:1039B0002093A901C5010E94D7158091A901F801A2
:1039C00085838F2D61960FB6F894DEBF0FBECDBFF5
:1039D000DF91CF911F910F91FF90EF90DF90CF90EB
:1039E000BF90AF900895CD2829F0282F29232F3F8D
:1039F00009F014C120E0F22FF170DF2E20FF3DC04E
:103A00002091DB014091AA0156E0241315C08D8757
:103A10009E878D859E850E94C20E292F22952F702C
:103A20002230F8F0243020F59F70F9F0F8019581EC
:103A3000907FD9F4D12C1FC030E0529FF001539FEA
:103A4000F00D1124E555FE4F6181961306C060818B
:103A5000861303C06281E61210C02F5F3F4F2770AC
:103A6000D4CF9F7011F0882329F3805E883010F343
:103A7000C8010E94D715FD2CA4CFEE2009F4A1CFD8
:103A80008091A90181608093A901F12C9ACF4913FB
:103A900012C0381310C0E1100EC0F8012583C80110
:103AA0000E94D71586E0F801A4EAB1E001900D92DA
:103AB0008A95E1F786CF8D879E878D859E850E94AA
:103AC000CC0E882309F1EE20F9F08091A901803213
:103AD00070F02091A4013091A50138872F831986B9
:103AE000DB86CA868C87CE0107960E94D71586E0B2
:103AF000F801A4EAB1E001900D928A95E1F70E94E5
:103B0000311CFF24F3945DCFC8010E94D715F9CF73
:103B100051110AC084EA91E00E94D71586E0F501B0
:103B200011928A95E9F7B1CF49130FC038130DC030
:103B3000E1100BC0F8012583C8010E94D71586E06B
:103B4000F50111928A95E9F73CCF8D879E878D8587
:103B50009E850E94CC0E8823B9F2EE20A9F28091B6
:103B6000A901803220F22091A4013091A5013A836D
:103B700029831B82DD82CC828E83CE010196B5CF54
:103B8000E83CF105E0F6FE2CEE2009F4BDCF491328
:103B900016C0381314C08091A90180FD83CF982FDF
:103BA000907F09F47FCFF8018583903F09F477CFA8
:103BB000982F907F905F8F70892B858370CF8D8732
:103BC0009E878D859E850E94CC0E811190CF80911D
:103BD000A90181608093A901C8010E94D715F1CE87
:103BE000EE2009F491CF8D879E878D859E850E945A
:103BF000CC0EF82E882309F487CF86E0F801A4EADA
:103C0000B1E001900D928A95E1F78091A401909125
:103C1000A5010E94C20E0E94311CD3CE21E02E25A8
:103C2000EACE1F93CF93DF93CDB7DEB767970FB67A
:103C3000F894DEBF0FBECDBF342F4B8B252F5C8B8E
:103C40006D8B7E8B8F8B8E899F8961111092E30122
:103C50001A8A198A3D872E876F87998B888B86E011
:103C6000FE013D96DE01179601900D928A95E1F7CF
:103C7000CE0107960E94871C882389F016E0809168
:103C8000DB019091AA01891349C067960FB6F89499
:103C9000DEBF0FBECDBFDF91CF911F91089586E0AB
:103CA000FE013796DE01119601900D928A95E1F79B
:103CB0008A859B85892B11F38F81988589238F3F76
:103CC000E9F22091AA0130E0C90101968770992795
:103CD0004091DB014817190671F40E947B12109283
:103CE000AA011092DB0186E0E4EAF1E0DF011D9217
:103CF0008A95E9F7C3CF96E0929FD001939FB00DCC
:103D00001124A555BE4FFE01319601900D929A9552
:103D1000E1F78093AA010E944F06B0CF819FC001B6
:103D2000112485559E4F0E94871C882309F4ADCF2E
:103D30008091DB0190E00196877099278093DB01E9
:103D40009ECFEEE3F2E0248130E1230F08F42FEF61
:103D500024830C945715EEE3F2E0248130E1231B19
:103D600008F420E024830C945715EEE3F2E085E399
:103D700080838091150190911601A0911701818394
:103D80009283A3838FE784830C9457151F920F921D
:103D90000FB60F9211242F933F934F935F936F931E
:103DA0007F938F939F93AF93BF93CF93DF93EF93C3
:103DB000FF93D091E900DF708091EC00C82FC170B3
:103DC00080FDC0E81092E9008091F000877F809329
:103DD000F00078940E9490121092E9008091F00017
:103DE00088608093F000CD2BCF70C093E900FF91E5
:103DF000EF91DF91CF91BF91AF919F918F917F9183
:103E00006F915F914F913F912F910F900FBE0F9047
:103E10001F9018951F920F920FB60F9211242F9397
:103E20003F934F935F936F937F938F939F93AF9342
:103E3000BF93EF93FF938091E10082FF09C08091CF
:103E4000E20082FF05C08091E1008B7F8093E1005A
:103E50008091DA0080FF24C08091D80080FF20C0CC
:103E60008091DA008E7F8093DA008091D90080FF04
:103E70009BC080E189BD82E189BD09B400FEFDCF10
:103E800081E080932D0280910802811109C00E9477
:103E900084020E944F038091E20084608093E200DC
:103EA0008091E10080FF17C08091E20080FF13C085
:103EB0008091E2008E7F8093E2008091E200806139
:103EC0008093E2008091D80080628093D80019BC72
:103ED00085E080932D028091E10084FF29C08091CC
:103EE000E20084FF25C080E189BD82E189BD89B5FA
:103EF000982F917080FFFBCF8091D8008F7D8093A9
:103F0000D8008091E1008F7E8093E1008091E200F3
:103F10008F7E8093E2008091E20081608093E200D6
:103F200080912E02882309F445C084E080932D02FD
:103F30008091E10083FF27C08091E20083FF23C0CE
:103F40008091E100877F8093E10082E080932D02E1
:103F500010922E028091E1008E7F8093E10080918B
:103F6000E2008E7F8093E2008091E2008061809386
:103F7000E20042E060E080E00E941D038091F000DA
:103F800088608093F000FF91EF91BF91AF919F9176
:103F90008F917F916F915F914F913F912F910F90F2
:103FA0000FBE0F901F90189519BC10922D02109201
:103FB000080276CF8091E30087FD93E090932D0275
:103FC000B7CFCDB7DEB7AA970FB6F894DEBF0FBE56
:103FD000CDBF84B7877F84BF0FB6F894A895809132
:103FE0006000886180936000109260000FBE80E8DE
:103FF00090E00FB6F89480936100909361000FBE3B
:1040000085B7806885BF85B7806885BF80E395E008
:1040100090937101809370010E9484020E944F036B
:104020008091E20084608093E200789480912D0278
:104030008823A1F01091E9001F709091EC00892F66
:10404000817090FD80E8182B1092E9008091E800C3
:1040500083FD0E9490121F701093E90082E084BDDE
:1040600093E095BD9AEF97BD80936E0087E30E9421
:104070005C0C82E30E945C0C83E30E945C0C81E395
:104080000E945C0C1092EA01109203020E94BE1181
:104090002FEF36E741E0215030404040E1F700C0CB
:1040A00000000E94BE118091030280FF17C06FEFD5
:1040B00082E290E00E946D276FEF83E290E00E9421
:1040C0006D276FEF84E290E00E946D276FEF7FEF26
:1040D00090E080E00E948B270E943D1090E080E0FD
:1040E0000E9457278B3E9E4F69F00E94111290E06C
:1040F00080E00E9457278B3E9E4F21F00E941112B4
:104100000E94B51E45E050E06CE170E08EE392E065
:104110000E943F2780913E028C7F11F40E94B51EC1
:1041200082E290E00E944F27823209F0A0C583E22C
:1041300090E00E944F27863009F099C584E290E014
:104140000E944F27823009F092C590E080E00E94E3
:1041500057278B3E9E4F11F00E94111282E090E093
:104160000E944F27809301020E94B60C9093EC01AD
:104170008093EB0183E090E00E944F27682F70E06E
:1041800090E080E00E94E00A86E091E09093EE01EA
:104190008093ED0198E1E92EF12C20E4B22E30E17C
:1041A000A32E40E1742E80912D02853009F455C074
:1041B0000E94BE11882359F08FB7F89440910402F1
:1041C0005091050260910602709107028FBF909195
:1041D00003028091020289134AC08FEF8EA38FA33E
:1041E00018A60E9444058160782F9AA789A74EA13E
:1041F0005FA168A58AA50E94111E5CC080912D0256
:10420000843009F11092EF010FB6F894A895E0926E
:1042100060000FBEB092600083B7817F846083BF6F
:1042200083B7816083BF7894889583B78E7F83BF7F
:104230000FB6F894A8958091600088618093600023
:10424000109260000FBE80912C02882331F00E94F2
:10425000BE11809103028111F3C480912D0285303B
:1042600009F4CCCF0E947B120E949A06A1CF892725
:10427000182F117080FD49C181FD49C182FFADCF6A
:1042800014E082E089A31AA2912381E009F480E07E
:104290008BA30E9444058160782F9DA38CA349A124
:1042A0005AA16BA18DA10E94111E809102021827B4
:1042B000109302028FB7F8944091040250910502C6
:1042C00060910602709107028FBF4093F0015093F6
:1042D000F1016093F2017093F30180913E02382F57
:1042E0003370D32E19F0D82ED694D6949091140111
:1042F000913009F41DC1992309F40CC1923009F4DD
:1043000035C3933009F43AC386E0EAEFF1E0DE0109
:10431000119601900D928A95E1F7D090FC01C09022
:10432000FD011091FE010091FF011092FC0110921D
:10433000FD011092FE011092FF018D2D8C2909F4D0
:1043400048C08091F8019091F9010E9435059C01C7
:104350009091F701992309F4B1C423333105C8F1D1
:104360009F3F19F09F5F9093F701DD2059F00E9465
:10437000E20B9FEF1D140CF491E0899F802D112416
:104380008093FC01CC2059F00E94E20B9FEF1C149B
:104390000CF491E0899F802D11248093FD013091D0
:1043A000FC013323B1F02091FD01222391F045EB74
:1043B0003403C0011124992309F4FFC29093FC0136
:1043C00045EB240390011124332309F4FAC23093FE
:1043D000FD01812F802B09F448C08091F501909157
:1043E000F6010E9435059C019091F401992309F48E
:1043F00060C425363105C8F19F3F19F09F5F909347
:10440000F401112359F00E94C00B9FEF11160CF418
:1044100091E0899F802D11248093FE01002359F0A3
:104420000E94C00B9FEF10160CF491E0899F802D25
:1044300011248093FF013091FE013323B1F02091CC
:10444000FF01222391F045EB3403C001112499238D
:1044500009F4BBC29093FE0145EB240390011124A3
:10446000332309F4B6C23093FF018091FC0190918F
:10447000FD01892B9091FE01892B9091FF01892BE1
:1044800011F00E941A0A86E0FE013196AAEFB1E00F
:1044900001900D928A95E1F70E949A069091000290
:1044A000891721F00E949A068093000280912D02C4
:1044B000843009F078CE83E08093E9008091E800B1
:1044C00082FF71CE8091E80090E085FF0CC00E94D1
:1044D000A30230E2C32ED12C8E010F5F1F4F882321
:1044E00009F485C291E08091E8008B778093E80021
:1044F000992309F458CEE981E150E33108F0DBC299
:10450000F0E0E25DF74D0C94D62680E0BBCE12E0E1
:1045100081E0B8CE109211014093370250933802D7
:104520006093390270933A0281E080931401ECCEDB
:104530009091050111E0D91209C083702091040106
:1045400030E011E08217130609F410E011701093A7
:10455000130148E14D1540F0ED2DF0E0EF5BF74D14
:104560000C94D626111102C010E023C040E060E098
:1045700080E00E94C206F8CF00911101CC24C394C0
:10458000C00E9C2C83E08C1510F483E0982E609173
:104590003F0270914002809141020E941308862ED2
:1045A000672E582E10E00915B0F011E092E09C152E
:1045B000D8F2809111018F5F809311011111A4CE67
:1045C00082E0809314018091130181119DCED1105E
:1045D0009BCE83E0AACFF801ED59FE4F81859091E3
:1045E0001201892331F0252D482D662DC8010E9426
:1045F000C4060F5F1F4FD7CF00911101CC24C39485
:10460000C00E9C2CE3E0EC1510F413E0912E3090DA
:1046100040024090410210913F02612F732D842D82
:104620000E941308862E672E582E60914202610F59
:10463000732D842D0E941308462E372E282E10E04D
:10464000091530F011E0F2E0FC1508F0B2CF8CCF84
:10465000F801ED59FE4F918580911201892359F09F
:10466000222D442D632D90FD03C0252D482D662D50
:10467000C8010E94C4060F5F1F4FE2CF00911101D5
:10468000CC24C394C00E8C2C23E02C1510F4B3E082
:104690008B2E6090400250904102209142023B2DAF
:1046A000329F312D1124932E10E0081530F011E0C7
:1046B00042E04C1508F07DCF57CFF801ED59FE4F81
:1046C0008185909112018923B9F0F801EE0FFF1F47
:1046D000ED59FE4F848182958F7060913F02899DD4
:1046E000600D1124762D852D0E941308462F282F4A
:1046F000672FC8010E94C4060F5F1F4FD6CF0091DD
:104700001101CC24C394C00E8C2C83E08C1510F4C2
:10471000F3E08F2E609040025090410220914202BF
:104720003B2D329F312D1124932E10E0081508F0F7
:10473000BECFF801ED59FE4F81859091120189237A
:10474000D9F0F801EE0FFF1FED59FE4F6381969EE1
:10475000B0011124E5E075956795EA95E1F7809140
:104760003F02680F762D852D0E941308462F282FB3
:10477000672FC8010E94C4060F5F1F4FD7CF00915B
:104780001101CC24C394C00E9C2C83E08C1510F432
:1047900043E0942E80903F021091400260904102CD
:1047A0006091420266956695669580913702909178
:1047B00038020E9409080E949207805887FD81955F
:1047C000880F282F362D239F212D1124822F682D0D
:1047D000712F0E941308862E672E582E10E009159F
:1047E00008F065CFF801ED59FE4F818590911201D7
:1047F000892331F0252D482D662DC8010E94C4065D
:104800000F5F1F4FECCF87E095E00E947609182FCD
:10481000D0CE8DED94E0F9CF84E797E00E941A099D
:10482000F6CF85E597E0FACF8AE397E00E94A708E4
:10483000EECF8EE197E0FACF8BED94E0E6CF82EDFC
:1048400094E0E3CF89EC94E0E0CF80EB94E0DDCF1F
:1048500082EA94E0EBCF81EE97E0E0CF8DE097E045
:10486000DDCF89EF96E0E2CF84E794E00E94BC09B7
:10487000CECF85E494E0FACF8EE094E0F7CF11112B
:104880001EC0609142022A2D620F08F46FEF8091E2
:104890003702909138020E9409086AE070E00E9495
:1048A000AE26892B09F060CE0E942F2763E070E0CE
:1048B0000E94C226609112010E945C0F7ACE809005
:1048C0001101CC24C394C80C0C2D33E03C1508F422
:1048D00003E0912C10E08016910634F011E082E0A4
:1048E0008C1508F066CE40CE60911201C4010E9482
:1048F0005C0F4FEF841A940AEECF11111EC0609125
:1049000042022A2D620F08F46FEF809137029091D6
:1049100038020E94090865E070E00E94AE26892BEB
:1049200009F022CE0E942F2763E070E00E94C22689
:10493000609112010E943A0F3CCE80901101CC246C
:10494000C394C80C0C2D33E03C1508F403E0912C03
:1049500010E0801691060CF0C1CF60911201C401E5
:104960000E943A0F4FEF841A940AF3CFD0920501B8
:104970008370809304010E9497112BCE40913702DF
:10498000509138026091390270913A022FB7F89431
:104990008091040290910502A0910602B091070255
:1049A0002FBF841B950BA60BB70B4097A105B10534
:1049B00008F4AACC10921401A7CC81E08093FC01EA
:1049C000FFCC81E08093FD0104CD81E08093FE0166
:1049D00043CD81E08093FF0148CD8091F100F80143
:1049E00081938F01F1E0CF1AD10809F47BCD80913A
:1049F000E80085FDF2CF8091E8008B778093E80096
:104A00000E94A302882399F36DCD1A8289E08B83DB
:104A10001AC08A81823009F443C18330D9F18130D0
:104A200009F049C02FB7F894609104027091050213
:104A300080910602909107022FBF0E94DC266B83B3
:104A40007C838D839E8380912D02843009F0ABCBD3
:104A50001091E9001F709091EC00892F817090FDFA
:104A600080E8182B82E08093E9008091E80080FFC5
:104A70000DC050E040E060E270E0CE0101960E947F
:104A8000D4028091E8008E778093E8001F70109325
:104A9000E90089CB80910302BACF8A81823059F430
:104AA0006B817C818D819E810E94DC2685E290E075
:104AB0000E946D27C8CF8FEF8983C5CF4C816B8152
:104AC0008A810E94C40C9827892798279E838D830A
:104AD000BACF0D811E811027012710279A8186E009
:104AE000CB80C89E60011124989FC00CD11C11245A
:104AF0008C8190E0880F991FC80ED91E612FC601C6
:104B000086960E946D27602FC6018796D1CF0E949E
:104B1000F00E99CF7A8297CF83E08A8382EC77CFA9
:104B20000A811B811027012710279E012F5F3F4F0D
:104B300069018C80C901880D911D4C01C801CE9678
:104B4000C814D90409F47FCF023CE3E01E0750F4F7
:104B50000E944F27F60184830F5F1F4FFFEFCF1A8C
:104B6000DF0AECCFF6011482F7CF0A811B811027F0
:104B7000012710279E012F5F3F4F4901CC80C00EB7
:104B8000D12ED11CC801CE960C151D0509F45BCFA2
:104B9000023C33E0130720F4F40164810E946D2786
:104BA000FFEF8F1A9F0A0F5F1F4FECCF0E942A0F53
:104BB0004ACF84E08A8347CF0A811B8110270127CF
:104BC00010279E012F5F3F4F69018C80C901880D1E
:104BD000911D4C01C8018696C814D90409F433CF3D
:104BE0000831110550F40E944F27F60184830F5FAE
:104BF0001F4FFFEFCF1ADF0AEDCFF6011482F7CF78
:104C00000A811B811027012710279E012F5F3F4F2C
:104C10004901CC80C00ED12ED11CC8018696C01689
:104C2000D10609F410CF0831110520F4F401648194
:104C30000E946D27FFEF8F1A9F0A0F5F1F4FEDCF66
:104C4000A9BC22E129BD09B400FEFDCF8091D800A6
:104C50008F7D8093D8008091E00082608093E00097
:104C60008091E00081FDFCCF0E947B12F6CA60E0DB
:104C700085E290E00E946D270E94F00E0E942A0FAC
:104C800062E282E290E00E946D2766E083E290E0BB
:104C90000E946D2762E084E290E00E946D2755CA71
:104CA00085E290E00E944F271B821C821D828E832A
:104CB000CACE2D32314008F0A1CBD7CB2D323140B6
:104CC00008F050CB86CB78941F921FB61F92112408
:104CD0008F939F93AF93BF938091040290910502AD
:104CE000A0910602B09107020196A11DB11D80930B
:104CF000040290930502A0930602B0930702BF91AD
:104D0000AF919F918F911F901FBE1F9018951F927A
:104D10001FB61F9211248F939F93AF93BF938091DF
:104D2000EF01811113C08091040290910502A091BE
:104D30000602B09107024196A11DB11D80930402A5
:104D400090930502A0930602B0930702BF91AF9122
:104D50009F918F911F901FBE1F901895AA1BBB1B80
:104D600051E107C0AA1FBB1FA617B70710F0A61B6B
:104D7000B70B881F991F5A95A9F780959095BC018C
:104D8000CD01089597FB072E16F4009407D077FD08
:104D900009D00E94AE2607FC05D03EF4909581957F
:104DA0009F4F0895709561957F4F0895EE0FFF1FF7
:104DB0000590F491E02D09946927962769277827B3
:104DC0008727782708958F929F92AF92BF92CF92B4
:104DD000DF92EF92FF92CF93DF93EC0168817981AC
:104DE0008A819B81611571058105910521F464E239
:104DF00079ED8BE597E02DE133EF41E050E00E9443
:104E0000912749015A019B01AC01A7EAB1E40E9434
:104E1000B0276B017C01ACEEB4EFA50194010E94B8
:104E2000BE27DC01CB018C0D9D1DAE1DBF1DB7FF44
:104E300003C00197A109B04888839983AA83BB83E3
:104E40009F77DF91CF91FF90EF90DF90CF90BF9051
:104E5000AF909F908F9008950E94E326089580E080
:104E600091E00E94E3260895B0E0A0E08093000165
:104E700090930101A0930201B09303010895DC0116
:104E8000CB01FC01F999FECF06C0F2BDE1BDF89A55
:104E9000319600B40D9241505040B8F70895F999F9
:104EA000FECF92BD81BDF89A992780B50895A8E1FB
:104EB000B0E042E050E00C944127DC01A40FB51FA4
:104EC0004150504048F0CB01840F951F2E910E9415
:104ED0006E2741505040D0F70895262FF999FECF04
:104EE00092BD81BDF89A019700B4021639F01FBA3D
:104EF00020BD0FB6F894FA9AF99A0FBE089503965A
:104F0000272F0E946E270E946D27252F0E946E2753
:104F1000242F0C946E270196272F0E946E270C9445
:104F20006D27052E97FB1EF400940E94A82757FDBD
:104F300007D00E94C32707FC03D04EF40C94A82787
:104F400050954095309521953F4F4F4F5F4F0895B5
:104F500090958095709561957F4F8F4F9F4F0895E5
:104F60000E94E527A59F900DB49F900DA49F800DF2
:104F7000911D11240895B7FF0C94B0270E94B0270B
:104F8000821B930B0895A1E21A2EAA1BBB1BFD01E5
:104F90000DC0AA1FBB1FEE1FFF1FA217B307E40718
:104FA000F50720F0A21BB30BE40BF50B661F771F70
:104FB000881F991F1A9469F7609570958095909550
:104FC0009B01AC01BD01CF010895A29FB001B39F29
:104FD000C001A39F700D811D1124911DB29F700D02
:104FE000811D1124911D0895F894FFCFDB0EDB0E77
:104FF000E40EE40EE60EE40EE40EE40EDB0EDB0E31
:10500000EB0EE40EE40EEB0E75139D13F0139D13DF
:10501000F013D0130814F01305151215671967194A
:10502000DA19DA19341A4E1A9E199E19591A2F1BB9
:10503000401B401BBD18C818CF18D418D918DE184B
:10504000E318E818ED18F218F718FC1800190219FF
:105050000419351635163516351635160525092564
:105060004D255E25692587255B255B255B255B2511
:105070005B258A258C259025B525D625D925DC25C7
:105080000026B222BC22FC223E237F23BF2303241E
:1050900009240C241124142419241C241F24222440
:1050A000252428242B242E243124342439243C2460
:0450B0003F247D24F8
:1050B40001000000FFFF3205FD0FDC0FD80FD40FF5
:1050C4000100FF000300FFFF003131295A1B750A5C
:1050D400818283E200E900EA00B500B600B700CDA2
:1050E400008301CC008A019201940121022302244D
:1050F400022502260227022A02B300B4006F0070C0
:10510400003233314022B684016201AC00E603FF71
:10511400031F04000102E02070200020FFFFFF00B5
:00000001FF
